:020000040800F2
:10000000C007002015020008FB1A0008CF0C0008EA
:10001000F71A0008ED070008232800080000000078
:10002000000000000000000000000000551F000854
:10003000F107000800000000291C0008A5200008A6
:100040002F0200082F0200082F0200082F020008CC
:100050002F0200082F0200082F0200082F020008BC
:100060002F0200082F0200082F0200082F020008AC
:100070002F0200082F0200082F0200082F0200089C
:100080002F0200082F0200082F0200082F0200088C
:100090002F0200082F0200082F0200085D08000848
:1000A0002F0200082F0200082F0200082F0200086C
:1000B0002F02000809210008F52100082F0200087E
:1000C0002F0200082F0200082F0200082F0200084C
:1000D0002F0200083D250008B52500082F02000862
:1000E0002F0200082F0200082F0200082F0200082C
:1000F0002F0200082F0200082F0200082F0200081C
:100100002F0200082F0200082F0200082F0200080B
:100110002F0200082F020008E12200082F02000829
:100120002F0200082F0200082F0200082F020008EB
:1001300000F002F800F05FF80AA090E8000C82449A
:100140008344AAF10107DA4501D100F054F8AFF277
:10015000090EBAE80F0013F0010F18BFFB1A43F0A5
:1001600001031847448B0000648B00000A444FF0E1
:10017000000C10F8013B13F0070408BF10F8014B06
:100180001D1108BF10F8015B641E05D010F8016B4B
:10019000641E01F8016BF9D113F0080F1EBF10F8AF
:1001A000014BAD1C0C1B09D16D1E58BF01F801CBD2
:1001B000FAD505E014F8016B01F8016B6D1EF9D555
:1001C0009142D6D37047000000230024002500266A
:1001D000103A28BF78C1FBD8520728BF30C148BFAA
:1001E0000B607047642900F06780002070471FB5DE
:1001F0001FBD10B510BD00F0CBFA1146FFF7F7FF99
:1002000004F0EEF900F0E9FA03B4FFF7F2FF03BCE3
:1002100002F0A9FC0948804709480047FEE7FEE7CD
:10022000FEE7FEE7FEE7FEE7FEE7FEE7FEE7FEE7A6
:1002300004480549054A064B70470000A9200008FC
:1002400031010008C0010020C0070020C0030020C9
:10025000C0030020704710B54C1084EA530404D545
:100260004042C1F1000138BF491E1B4204D5524231
:10027000C3F1000338BF5B1E00F02EF914F0804F6D
:1002800004D04042C1F1000138BF491E14F0004FB4
:1002900004D05242C3F1000338BF5B1E10BD000002
:1002A0000FB4044910B503AA029800F0F1F910BC8C
:1002B0005DF814FB500000202DE9F04106460024B3
:1002C00010687529314616A510D0AFF300800028BC
:1002D00002DA404213A507E031688A0701D512A56A
:1002E00002E0490704D511A5012401E0AFF3008025
:1002F00000210A2206F1240709E0B0FBF2FCB0FB62
:10030000F2F302FB1C00303078541846491C0028D8
:10031000F3D123462A463046BDE8F04100F05EB9ED
:10032000000000002D0000002B0000002000000055
:100330002DE9F05F894604464FF0000ADFF824B14A
:10034000FB44C0F820A02046E168884700287DD003
:10035000252806D0D4E901219047206A401C20625C
:10036000F1E700255F462046E168884720280646D9
:1003700007DB312E05D2B81910F8200C08B105435F
:10038000F1E7A80701D525F00405C4F81CA0002753
:10039000C4F818A02A2E09D0304602F0DDFB38B38D
:1003A00004EB8708303EC8F8186019E059F8041BC0
:1003B000204604EB87029161E1688847012F0646D9
:1003C00018D1E069002820DA25F020051DE0D8F8D2
:1003D000180000EB800006EB40003038C8F8180029
:1003E0002046E1688847064602F0B6FB0028EED1B9
:1003F000012F0AD02E2E08D12046E16888477F1CA5
:100400000646022F45F02005C4DBA069002803DA68
:10041000404245F00105A061E80701D025F0100534
:10042000A6B1A6F14100192802D8203645F400658E
:100430004A463146204625604D46FFF7D3FE60B15F
:10044000012807D0ED1D25F0070000E007E000F1CE
:10045000080978E705F1040975E730467AE7206A6C
:10046000BDE8F09F1288000040EA010310B59B0729
:100470000FD1042A0DD310C808C9121F9C42F8D00E
:1004800020BA19BA884201D9012010BD4FF0FF30BF
:1004900010BD1AB1D30703D0521C07E0002010BDD5
:1004A00010F8013B11F8014B1B1B07D110F8013B61
:1004B00011F8014B1B1B01D1921EF1D1184610BD42
:1004C00002F0FF0343EA032242EA024200F0F4B8DA
:1004D000704770477047704753EA020C00F069801C
:1004E0002DE9F04B4FF00006002B1FBFB3FA83F548
:1004F00003FA05F424FA05F65E4012BF1643B2FA79
:1005000082F502FA05F4C5F120051EBF22FA05FCAA
:1005100044EA0C04203556EA044C4FEA144418BF50
:10052000641C4FF000084FF00009904271EB030C7F
:1005300039D3002919BFB1FA81F701FA07F6B0FAE9
:1005400080F700FA07F6C7F120071EBF20FA07FC64
:1005500046EA0C062037B6FBF4FCA7EB0507103F74
:1005600007F01F0BCBF120060CFA0BFB2CFA06F65A
:1005700044BFB3460026202FA4BF5E464FF0000BB9
:100580005BEA060C08BF4FF0010B19EB0B09ABFB44
:10059000027C48EB0608C01B06FB02CC0BFB03CC1D
:1005A00071EB0C01C1E70B46024641464846BDE8E7
:1005B000F08B13B54FF000004FF00001AFF3008057
:1005C000BDE81C40704710B500F096F8006810BDFB
:1005D00010B5044600F090F8046010BD2DE9F04716
:1005E0000D4699469246044600F1240801688806A3
:1005F00004D5E06921F01001216000E00120A8424B
:1006000001DD471B00E00027A1697A1902EB090010
:10061000081AA0612078C00602D42046AFF30080FB
:10062000002608E0D4E901211AF806009047206A64
:10063000401C761C20624E45F4DB2078C0060AD5AB
:100640002046AFF3008006E0D4E901213020904736
:10065000206A401C2062381EA7F10107F4DC07E085
:10066000D4E9012118F805009047206A401C206257
:10067000281EA5F10105F3DC2046AFF300802078A9
:10068000000602D50220BDE8F0870120FBE700004C
:10069000074B70B50D467B4400F037F804462846FA
:1006A00000F046F810B14FF0FF3070BD204670BD2D
:1006B0007F3800004FF000020429C0F0128010F0D3
:1006C000030C00F03B80CCF1040CBCF1020F18BF0E
:1006D00000F8012BA8BF20F8022BA1EB0C0100F0C1
:1006E0002DB85FEAC17C24BF00F8012B00F8012B74
:1006F00048BF00F8012B7047004870475C0100209C
:1007000001694A1C02610878704700B58FB0CDE9D5
:1007100001310021059105497944CDE903101146C5
:100720006846FFF705FE0FB000BD0000E5FFFFFFC4
:10073000007B00F0800070474FF0000200B51346C8
:1007400094469646203922BFA0E80C50A0E80C50F1
:10075000B1F12001BFF4F7AF090728BFA0E80C50A2
:1007600048BF0CC05DF804EB890028BF40F8042B9B
:1007700008BF704748BF20F8022B11F0804F18BF08
:1007800000F8012B70470000004870475C01002012
:100790007546FFF7F9FFAE4605006946534620F05F
:1007A0000700854618B020B5FFF742FDBDE82040A0
:1007B0004FF000064FF000074FF000084FF0000B1D
:1007C00021F00701AC46ACE8C009ACE8C009ACE8D0
:1007D000C009ACE8C0098D46704710B50446AFF3B8
:1007E00000802046BDE81040FFF70EBD00BFFEE7C9
:1007F0007047000008B50121142001F027FA1020ED
:100800008DF803008020ADF8000003208DF8020071
:100810006946054800F07AF90820ADF800006946FD
:10082000024800F073F908BD0008014000100140C3
:1008300008B50121102001F009FA10208DF80300FD
:100840000520ADF8000003208DF80200694602483B
:1008500000F05CF908BD00000010014070B52020D8
:1008600000F0CEF800287DD0202000F0C3F84B48DF
:100870000068002876D14A4A4A494B4803F056FF9F
:100880004A4A4B494B4800F06FFE4B4946480068C6
:1008900006F052F90AD20020484908704849087009
:1008A00040F29971880701F0B2FD27E045493E48C2
:1008B000006806F041F80BD200204049087040491A
:1008C000087040F2D6614FF0804001F0A0FD15E0C5
:1008D0003D493548006806F02FF805D33B493248BA
:1008E000006806F029F909D201203449087034491A
:1008F000087040F23A71800701F089FD34480068C1
:100900003449086034480068344908602848B0F920
:10091000000005F0E5FF064631462348006802F076
:1009200079F82F4908602B48006801F0CDFF2D4968
:1009300008602A48006801F0C7FF2B4908601B487F
:10094000B0F9000001F0B8FD2849086024480068AB
:100950002449096844182248006823490968451851
:10096000224800E019E000682044194908601F4847
:100970000068281A18490860154800F0A1FD1648BB
:1009800001681348006801F0DBF91948006808B9EC
:10099000012000E000201649086070BD148121424A
:1009A00014000020100000200C000020080000208F
:1009B00006000020040000200000204270000020FB
:1009C00068000020000020C200002041000020C17B
:1009D000B000002018000020B40000201C000020FF
:1009E0009C000020A0000020A4000020A8000020FF
:1009F000A001214201490860704700001404014031
:100A0000014600200022074B1B6803EA0102054B48
:100A100014331B680B4013B10AB1012000E0002021
:100A20007047000000040140002123498279002A18
:100A30003AD00A46126803689A430B461A600A1DA8
:100A4000126803689A430B1D1A60027911440A6800
:100A500003681A430A60184A0832126803689A4306
:100A6000154B08331A601A1D126803689A43124B1B
:100A70000C331A604279102A0ED11A1F12680368CB
:100A80001A430D4B08331A601A1D126803681A4383
:100A9000094B0C331A600DE00749427911440A688A
:100AA00003681A430A6005E0027911440A68036882
:100AB0009A430A6070470000000401400146002983
:100AC00001DD0A4600E04A421046704730B5002278
:100AD0008B071C0F0F2303FA04F20B4B8C1053F8F7
:100AE00024309343084C8D1044F8253023468C1055
:100AF00053F824308C07240F00FA04F42343024CEB
:100B00008D1044F8253030BD080001402DE9F0413A
:100B1000024600250026002000230024002791F82B
:100B200003C00CF00F0591F803C00CF0100CBCF1E1
:100B3000000F03D091F802C04CEA050591F800C0FF
:100B4000BCF1000F31D0146800202BE04FF0010CF5
:100B50000CFA00F3B1F800C00CEA03069E4220D163
:100B600083004FF00F0C0CFA03F7BC4305FA03FCAB
:100B70004CEA040491F803C0BCF1280F06D14FF0F1
:100B8000010C0CFA00FCC2F814C00AE091F803C092
:100B9000BCF1480F05D14FF0010C0CFA00FCC2F873
:100BA00010C0401C0828D1D31460B1F800C0BCF1BB
:100BB000FF0F34DD546800202EE000F1080C4FF0E8
:100BC000010808FA0CF3B1F800C00CEA03069E42D3
:100BD00021D183004FF00F0C0CFA03F7BC4305FA48
:100BE00003FC4CEA040491F803C0BCF1280F05D1C2
:100BF00000F1080C08FA0CF8C2F8148091F803C050
:100C0000BCF1480F07D100F1080C4FF0010808FAB9
:100C10000CF8C2F81080401C0828CED35460BDE800
:100C2000F0810000F0B50A460023002400210025D1
:100C300000F00046B6F1004F02D11D4EF16901E00F
:100C40001B4E7168C0F3034583B200F44016B6F53D
:100C5000401F08D121F07061154E766826F070664D
:100C6000134F7E6012E000F48016B6F5801F06D1A7
:100C7000032606FA05F4A14341F0706106E0460D33
:100C8000360103FA06F6B14341F0706122B1460D18
:100C9000360103FA06F6314300F00046B6F1004F84
:100CA00002D1034EF16101E0014E7160F0BD000020
:100CB000000001400246002093680B400BB1012068
:100CC00000E000207047416170470161704700BF3C
:100CD000FEE7000008B50121442000F0B7FF18200E
:100CE000ADF8000048208DF8030069460648FFF77C
:100CF0000DFF0120ADF8000028208DF803006946A3
:100D00000248FFF703FF08BD00180140000801403A
:100D100010B5044614B10120234908702248007818
:100D200058B310212148FFF7C5FF50B108211F48D3
:100D3000FFF7C0FF28B101211D48FFF7BBFF0128C5
:100D40001BD10A2002F0C2FA0020174908701021B6
:100D50001648FFF7AFFF08B9012010BD082113485E
:100D6000FFF7A8FF08B90220F7E701211048FFF7B5
:100D7000A1FF012815D10320EFE710210B48FFF751
:100D800099FF01280DD108210848FFF793FF01289A
:100D900007D101210648FFF78DFF10B90120024954
:100DA00008700020D9E700004C0000200018014026
:100DB0000008014070B506460F484088401E83B2C7
:100DC0000D480088401E82B20021084600F05EF9FE
:100DD00000240CE0002504E0304600F0F5FA681C21
:100DE00085B205484088A842F6DC601C84B20248FF
:100DF0000088A042EEDC70BD4C01002030B50446F6
:100E00000D462946204600F022F90248008800F0ED
:100E1000DBFA30BD3401002010B500F0D5FF00F042
:100E20000EF9112000F0EEFA782002F04FFAB1200E
:100E300000F0E8FA012000F0ADFA2C2000F0AAFA48
:100E40002D2000F0A7FAB22000F0DCFA012000F01B
:100E5000A1FA2C2000F09EFA2D2000F09BFAB3207E
:100E600000F0D0FA012000F095FA2C2000F092FA60
:100E70002D2000F08FFA012000F08CFA2C2000F0D9
:100E800089FA2D2000F086FAB42000F0BBFA072082
:100E900000F080FAC02000F0B5FAA22000F07AFA43
:100EA000022000F077FA842000F074FAC12000F0EC
:100EB000A9FAC52000F06EFAC22000F0A3FA0A20B9
:100EC00000F068FA002000F065FAC32000F09AFAFA
:100ED0008A2000F05FFA2A2000F05CFAC42000F0BB
:100EE00091FA8A2000F056FAEE2000F053FAC5205D
:100EF00000F088FA0E2000F04DFA362000F082FA59
:100F0000C82000F047FAE02000F07CFA0F2000F043
:100F100041FA1A2000F03EFA0F2000F03BFA1820A8
:100F200000F038FA2F2000F035FA282000F032FACD
:100F3000202000F02FFA222000F02CFA1F2000F0D1
:100F400029FA1B2000F026FA232000F023FA37208C
:100F500000F020FA002000F01DFA072000F01AFA35
:100F6000022000F017FA102000F014FAE12000F03F
:100F700049FA0F2000F00EFA1B2000F00BFA0F20A8
:100F800000F008FA172000F005FA332000F002FA0A
:100F90002C2000F0FFF9292000F0FCF92E2000F0B1
:100FA000F9F9302000F0F6F9302000F0F3F939209B
:100FB00000F0F0F93F2000F0EDF9002000F0EAF930
:100FC000072000F0E7F9032000F0E4F9102000F01A
:100FD000E1F92A2000F016FA002000F0DBF90020E9
:100FE00000F0D8F9002000F0D5F97F2000F0D2F908
:100FF0002B2000F007FA002000F0CCF9002000F0D0
:10100000C9F9002000F0C6F99F2000F0C3F9F020D4
:1010100000F0F8F9012000F0BDF9F62000F0F2F937
:10102000002000F0B7F93A2000F0ECF9052000F0BC
:10103000B1F9292000F0E6F900F014F810BD10B560
:10104000642002F043F9322002F040F910BD30B5BF
:1010500004460D462B4622462946204600F016F847
:1010600030BD000000B52C200749088100208871A0
:101070008020088048802A2048812B208881C82130
:10108000362000F0E1F900BD4C010020F0B5044627
:101090000D4616461F461349488900F0B3F9201241
:1010A00000F078F9A11CC8B200F074F9301200F019
:1010B00071F9B11CC8B200F06DF90A49888900F0D5
:1010C000A1F9281200F066F9E91CC8B200F062F933
:1010D000381200F05FF9F91CC8B200F05BF900F0BB
:1010E000ABF9F0BD4C0100202DE9FF4F83B08146E4
:1010F0008A469346DDE91064414800880290A6F1D3
:101100002000C6B204EBD47009EB6000401E82B22E
:101110000AEB0400401E83B2514648460194FFF793
:10112000B5FF129860BB002527E00C2C07D106EB19
:101130004600344901EB800010F8058004E0324895
:1011400000EB061010F8058000270FE008F0010002
:1011500020B10BF0FF0000F01DF903E00699C8B2C2
:1011600000F018F94FEA6808781CC7B204EBD47194
:10117000B7EB610FEADB681CC5B2A542D5DB2DE0F9
:10118000002529E00C2C07D106EB46001D4901EB98
:10119000800010F8058004E01B4800EB061010F8F2
:1011A0000580002711E01648A0F800B008F0010003
:1011B00038B10AEB050291B209EB070290B2FFF7D2
:1011C0001DFE4FEA6808781CC7B204EBD471B7EB78
:1011D000610FE8DB681CC5B2A542D3DB0849029861
:1011E00008800A484088401E83B208480088401E94
:1011F00082B200210846FFF749FF07B0BDE8F08F33
:10120000340100208A6D0008FE7100084C010020A6
:101210002DE9FF4F83B0074691461E46109C4FF0C4
:10122000000A002543E0701B401EC1B20A2004F0F2
:101230006DFBB9FBF0F00A21B0FBF1F201FB1208E3
:10124000BAF1000F1BD1701EA84218DDB8F1000FD3
:1012500013D101202021A346CDE90014029004EB14
:10126000DB71491001FB057188B217490B881749DA
:101270000A880499FFF738FF17E04FF0010A0121AF
:1012800008F13000C0B2A346CDE90141009004EB63
:10129000DB71491001FB057188B20B490B880B49C2
:1012A0000A880499FFF720FF00BF681CC5B2B54249
:1012B000B9DB33464A4600943846049900F008F8F2
:1012C00007B0BDE8F08F0000360100203401002097
:1012D0002DE9FF4F85B0074691461E46129C4FF000
:1012E000000A2A4800880490002546E0002027498B
:1012F0000880701B401EC1B20A2004F007FBB9FB36
:10130000F0F00A21B0FBF1F201FB1208BAF1000F74
:101310001BD1701EA84218DDB8F1000F13D10120B7
:101320002021A346CDE90014029004EBDB714910A3
:1013300001FB057188B216490B8814490A88069981
:10134000FFF7D2FE17E04FF0010A012108F130004B
:10135000C0B2A346CDE90141009004EBDB71491016
:1013600001FB057188B20A490B8808490A88069969
:10137000FFF7BAFE00BF681CC5B2B542B6DB034931
:101380000498088009B0BDE8F08F00003401002007
:101390003601002010B504464FF48050074908601C
:1013A0004020074908612146064800F0ABFD4FF494
:1013B00080500249091F086010BD0000140C014054
:1013C000001001400038004010B504464FF4805032
:1013D000094908604020094908612112084800F0C5
:1013E00091FDE1B2064800F08DFD4FF480500249B6
:1013F000091F086010BD0000140C014000100140DE
:101400000038004010B504464FF48050074908608A
:10141000402007494861E1B2064800F073FD4FF4EF
:1014200080500249091F086010BD0000140C0140E3
:10143000001001400038004000B502490889FFF75C
:10144000E1FF00BD4C01002030B505460C462846A2
:10145000FFF7D8FFE0B2FFF79DFF30BD08B50121CF
:10146000042000F0F3FB4FF48070ADF80000102072
:101470008DF8030003208DF8020069460E48FFF73F
:1014800045FB4FF480710C48FFF71FFC0121202021
:1014900000F0DCFB0420ADF8000010208DF8030004
:1014A00003208DF8020069460448FFF72FFB042152
:1014B0000248FFF70AFC08BD000801400014014083
:1014C0000268B2F5C87F02DD4FF4C872026002689C
:1014D00012F5C87F01DA084A02600A68B2F5C87FCF
:1014E00002DD4FF4C8720A600A6812F5C87F01DA9B
:1014F000014A0A607047000070FEFFFF1FB501211E
:10150000092000F0A3FB2020ADF8040048208DF84E
:10151000070003208DF8060001A91248FFF7F6FA2C
:1015200005210120FFF7D2FA2020029001208DF83A
:101530000E0000208DF80C000C208DF80D0002A884
:10154000FFF772FA17208DF8000000208DF80100D7
:1015500001208DF802008DF80300684600F0DEFAE5
:101560001FBD0000000C01402DE9FC4104460D4662
:1015700016466B4606224321682000F0E6F907462E
:10158000BFB99DF801009DF8001040EA012000B2AB
:1015900020809DF803009DF8021040EA012000B26F
:1015A00028809DF805009DF8041040EA012000B253
:1015B00030803846BDE8FC8110B500200E49086037
:1015C0000E48006820F470400C4908600846006826
:1015D00040F44050086000200949C1F8AC0100F017
:1015E00011F801200449086000F00CF800200449BB
:1015F000C1F8A80110BD0000A8812142040C0140DF
:101600000080214210B5022001F086FE10BD0000CE
:1016100008B50121082000F019FB4FF44060ADF837
:10162000000010208DF8030003208DF802006946A9
:101630000448FFF76BFA4FF440610248FFF745FB9F
:1016400008BD0000000C014010B500200E490860E4
:101650000E48006820F470400C4908600846006895
:1016600040F44050086001200949C1F8AC01FFF77F
:10167000C9FF012004490860FFF7C4FF00200449A6
:10168000C1F8A80110BD0000A8812142040C01404E
:101690000080214270B5054600241648006820F4F9
:1016A0007040144908600846006840F40040086033
:1016B000002614E0002010490860FFF7A3FF012076
:1016C0000E49C1F8A8016006040E0B487C3800687A
:1016D00008B1601CC4B2FFF795FF701CC6B2082E9B
:1016E000E8DB15B9FFF7B0FF01E0FFF765FF204623
:1016F00070BD0000040C0140A881214200802142FD
:1017000070B504461248006820F470401049086023
:101710000846006840F44050086000200D49086009
:10172000002512E0E0090B49091D08606006040E5F
:1017300001200949C1F8A801FFF764FF002005490D
:101740000860FFF75FFF681CC5B2082DEADB70BDBB
:10175000040C0140A88121420080214210B50E48AE
:10176000006820F470400C4908600846006840F4A6
:10177000405008600120094908600949C1F8A801E2
:10178000FFF740FF002005490860FFF73BFF0020FE
:101790000349C1F8A80110BD040C0140AC812142ED
:1017A0000080214210B50E48006820F470400C49BA
:1017B00008600846006840F440500860002009496D
:1017C00008600949C1F8AC01FFF71CFF0120054979
:1017D00008600549C1F8AC01FFF714FF10BD000017
:1017E000040C0140A88121420080214210B5002450
:1017F0001448006820F470401249086008460068E8
:1018000040F40040086001200F490860FFF7FAFE2D
:1018100001200E49C1F8A801FFF7F4FE07E0601CA3
:10182000C4B2FA2C03DDFFF7BDFF012010BD06484E
:10183000803800680028F2D10349091F086000BF02
:10184000F4E70000040C0140AC81214200802142F9
:1018500038B50121084600F0F9F90121042000F013
:10186000F5F94FF40040ADF8000010208DF80300AA
:1018700003208DF8020069462248FFF747F901214D
:101880002148FFF7CFF9002020490860FFF7C0FE8C
:1018900080216B2000F0DDF8642001F017FD0021AD
:1018A0006B2000F0D6F8032000F091F8002000F043
:1018B00086F8C82000F0B0F80021382000F0C9F800
:1018C00000216A2000F0C5F80021232000F0C1F8B3
:1018D0008021372000F0BDF8752000F019F804468B
:1018E000682C0BD101216B2000F0B3F800216C2093
:1018F00000F0AFF8642000F08FF801E0012038BD5F
:101900000020FCE70008014000023000BC01214239
:1019100070B50446FFF722FFD020FFF7F1FEFFF776
:1019200065FF2046FFF7ECFEFFF760FFFFF716FFAD
:10193000D120FFF7E5FEFFF759FF0020FFF7AAFED1
:101940000546FFF72FFF284670BD2DE9F0410646FA
:101950000F4614461D46FFF701FF002141EA4601EC
:10196000C8B2FFF7CDFEFFF741FF20B1FFF71AFF26
:101970000120BDE8F0813846FFF7C2FEFFF736FFD1
:10198000FFF7ECFE012101EB4601C8B2FFF7B8FEFC
:10199000FFF72CFF0DE0012C04D10020FFF77AFEA9
:1019A000287003E00120FFF775FE2870601EC4B2A6
:1019B0006D1C002CEFD1FFF7F5FE0020D9E710B524
:1019C0000446E006010E1C2000F043F810BD10B5DF
:1019D0000446E006010E1B2000F03BF810BD70B578
:1019E00004460025BC2C01DB012510E0622C01DB44
:1019F00002250CE02A2C01DB032508E0142C01DB76
:101A0000042504E00A2C01DB052500E00625294613
:101A10001A2000F01EF870BD70B50446B4F57A7F48
:101A200001DD4FF47A74042C00DA04244FF47A7048
:101A300090FBF4F0401EC5B22946192000F009F8C9
:101A40000546264604EBD671C1F34F00FFF7C7FFEA
:101A500070BD70B505460C46FFF780FED020FFF73D
:101A60004FFEFFF7C3FE18B1FFF79CFE012070BDCB
:101A70002846FFF745FEFFF7B9FE2046FFF740FE78
:101A8000FFF7B4FE18B1FFF78DFE0120EFE7FFF777
:101A900089FE0020EBE72DE9F04105460E4617468A
:101AA0009846FFF75BFE002141EA4501C8B2FFF707
:101AB00027FEFFF79BFE20B1FFF774FE0120BDE873
:101AC000F0813046FFF71CFEFFF790FE00240CE08B
:101AD00018F80400FFF714FEFFF788FE18B1FFF7AF
:101AE00061FE0120EBE7601CC4B2BC42F0DBFFF7F3
:101AF00059FE0020E3E700BFFEE7704708B5252048
:101B00008DF8000001208DF8030003208DF80100FE
:101B10008DF80200684600F001F808BD70B500219C
:101B200000230F22C47804B3154C246804F4E06445
:101B3000C4F5E064210AC1F10403CA40447804FA00
:101B400003F184781440214309010E4C0678A15515
:101B5000047804F01F050124AC4005786D11AD0038
:101B600005F1E025C5F8004109E0047804F01F05FF
:101B70000124AC40044D0678761145F8264070BD2E
:101B80000CED00E000E400E080E100E002490143E8
:101B9000024A1160704700000000FA050CED00E0F9
:101BA00030B589B005460C460121084600F03EF8E4
:101BB0000121042000F04AF80120ADF8200018208F
:101BC0008DF8230001208DF8220008A91548FEF7A2
:101BD0009DFFADF81850ADF814400020ADF81A0084
:101BE000ADF8160005A94FF0804000F013FC7020FE
:101BF000ADF804000120ADF806000020ADF80C009F
:101C000040F23A70ADF80A0001A9400700F0AAFBC3
:101C10000821C80600F0F2FB0121880700F07BFBD9
:101C200009B030BD000801407047000029B1064AE4
:101C3000D2690243044BDA6104E0034AD269824369
:101C4000014BDA61704700000010024029B1064ADA
:101C500092690243044B9A6104E0034A9269824309
:101C6000014B9A61704700000010024030B500211E
:101C70000022002400232D4D6D6805F00C0121B1D8
:101C8000042905D0082923D105E0294D056022E06B
:101C9000274D05601FE0254D6D6805F47012234D3A
:101CA0006D6805F48034022505EB92421CB9214D84
:101CB000554305600BE01D4D6D6805F400351DB101
:101CC0001C4D5543056002E0194D5543056002E087
:101CD000174D056000BF00BF144D6D6805F0F001A1
:101CE0000909154D6B5C0568DD4045600F4D6D6859
:101CF00005F4E061090A104D6B5C4568DD408560C4
:101D00000A4D6D6805F46051C90A0B4D6B5C45685E
:101D1000DD40C560054D6D6805F44041890B074DF8
:101D20006B5CC568B5FBF3F5056130BD0010024082
:101D300000127A0000093D00340000204400002019
:101D400010B504460B46002C0BDD2046FEF7B6FE10
:101D500041F61F4191FBF0F0174908800120174917
:101D60000860002C0BDA2046FEF7A8FE41F61F4162
:101D700091FBF0F010490880002010490860002B0A
:101D80000BDD1846FEF79AFE41F61F4191FBF0F07D
:101D90000B49088001200B490860002B0BDA18461C
:101DA000FEF78CFE41F61F4191FBF0F004490880DC
:101DB00000200449086010BD720000209C012142EF
:101DC000740000208C01224200B587B00121192047
:101DD000FFF73CFF4FF42040ADF8040003208DF8DE
:101DE000060018208DF8070001A92E48FEF78EFE88
:101DF0004FF48040ADF8040048208DF80700032020
:101E00008DF8060001A92748FEF780FE4FF48050A8
:101E1000ADF8040003208DF8060010208DF80700AF
:101E200001A92048FEF772FE4020ADF8040003200F
:101E30008DF8060010208DF8070001A91A48FEF75A
:101E400065FE4FF480511748FEF73DFF40211648CC
:101E5000FEF739FF01218803FFF7E8FE0020ADF807
:101E600008004FF48270ADF80A000020ADF80C00B5
:101E7000ADF80E00ADF810004FF40070ADF8120090
:101E80000020ADF81400ADF816000720ADF81800DA
:101E900002A9064800F018F80121044800F008F8EB
:101EA00007B000BD000C01400010014000380040A8
:101EB00021B1028842F04002028004E002884FF61D
:101EC000BF731A400280704710B50022028802F4E6
:101ED00041520B884C8823438C882343CC8823436E
:101EE0000C8923434C8923438C892343CC89234386
:101EF0001A430280838B4FF2FF74234083830B8A43
:101F0000038210BD03460A46002105E0491CB1F5D5
:101F1000FA6F01D9002070470D48008800F00200D8
:101F20000028F3D00A48001D0280002105E0491C6A
:101F3000B1F5FA6F01D90020EDE70548008800F0FF
:101F400001000028F3D00248001D0088C0B2E2E77B
:101F500008380040704710B500F002F810BD0000CE
:101F60000CB50020019000903348006840F48030A8
:101F70003149086000BF3048006800F4003000902C
:101F80000198401C0190009818B90198B0F5A06F15
:101F9000F1D12948006800F4003010B10120009010
:101FA00001E0002000900098012843D123480068F8
:101FB00040F01000214908600846006820F0030046
:101FC00008600846006840F0020008601A4840684F
:101FD000194948600846406848600846406840F42F
:101FE000806048600846406820F47C1048600846DD
:101FF000406840F4E81048600846006840F080708F
:10200000086000BF0C48006800F000700028F9D09C
:102010000948406820F003000749486008464068C6
:1020200040F00200486000BF0348406800F00C0028
:102030000828F9D10CBD0000001002400020024029
:1020400008B501210820FFF701FE10208DF80300DC
:10205000C020ADF8000003208DF802006946064854
:10206000FEF754FD40210448FEF72DFE8021024872
:10207000FEF729FE08BD0000000C0140042808D12D
:102080004FF0E021096941F004014FF0E0221161B5
:1020900007E04FF0E021096921F004014FF0E02250
:1020A000116170477047000010B51348006840F098
:1020B00001001149086008464068104908400E496F
:1020C0004860084600680E4908400B490860084609
:1020D000006820F4802008600846406820F4FE0074
:1020E00048604FF41F008860FFF735FF4FF0006035
:1020F0000449086010BD0000001002400000FFF815
:10210000FFFFF6FE08ED00E010B50121194800F0D0
:102110000EF9012828D118490860184800780128CC
:1021200022D117480068401C15490860084600681D
:1021300014490988884204D240211348FEF7C5FD9E
:1021400009E00F4800680F490988884203D94021F7
:102150000D48FEF7B8FD0A4800680C490988884216
:1021600002D90020064908600121024800F0D0F899
:1021700010BD0000000400408001224268000020E1
:102180006400002060000020000C0140720000206C
:102190007FB505460C4601210220FFF747FD1D20B3
:1021A0008DF8000002208DF801008DF8020001205A
:1021B0008DF803006846FFF7B1FCADF80850ADF8A4
:1021C00004400020ADF80A00ADF8060001A9084857
:1021D00000F020F901221146054800F0B9F801216C
:1021E000034800F089F80121014800F094F87FBD10
:1021F0000004004010B50121194800F098F80128AA
:1022000028D11849086018480078012822D11748B9
:102210000068401C15490860084600681449098890
:10222000884204D280211348FEF74FFD09E00F4891
:1022300000680F490988884203D980210D48FEF7BC
:1022400042FD0A4800680C490988884202D90020EA
:10225000064908600121024800F05AF810BD00004C
:102260000008004088012242700000206C0000201D
:102270006A000020000C0140740000207FB5054674
:102280000C4601210420FFF7D1FC1E208DF8000030
:1022900002208DF801008DF8020001208DF8030066
:1022A0006846FFF73BFCADF80850ADF8044000204D
:1022B000ADF80A00ADF8060001A9084800F0AAF838
:1022C00001221146054800F043F80121034800F0BF
:1022D00013F80121014800F01EF87FBD00080040FE
:1022E00010B50121034800F022F80121014800F057
:1022F0000FF810BD0010004021B1028842F08002AA
:10230000028004E002884FF67F731A400280704713
:10231000CA430282704721B1028842F00102028062
:1023200004E002884FF6FE731A400280704730B511
:102330000246002000230024158A05EA010395893E
:1023400005EA010413B10CB1012000E0002030BD0A
:102350001AB183890B43838102E083898B43838194
:102360007047000070B5002400220023058C4FF652
:10237000FE7635400584028C8388048B4FF68F757A
:102380002C40B51E2C400D882C43751E2A400D890B
:102390002A434D882A43144DA8420BD0134DA8421E
:1023A00008D0134DA84205D0124DA84202D0124DBC
:1023B000A84213D14FF6F7752A404D892A434FF6AC
:1023C000FB752A408D882A434FF6FF652B404FF658
:1023D000FF552B408D892B43CD892B43838004836C
:1023E000CD888586028470BD002C014000340140F8
:1023F0000040014000440140004801400A460021DD
:10240000018B4FF6F77319401143018370478186A2
:1024100070470000002202881D4B98420ED01D4BD1
:1024200098420BD0B0F1804F08D01B4B984205D09A
:102430001A4B984202D01A4B984204D14FF68F7330
:102440001A404B881A43174B984207D0164B9842B4
:1024500004D04FF6FF431A40CB881A4302808B8882
:1024600083850B8803850A4B98420BD0094B984211
:1024700008D00E4B984205D00D4B984202D00D4B20
:10248000984201D10B7A03860123838270470000B2
:10249000002C0140003401400004004000080040CE
:1024A000000C0040001000400014004000400140BB
:1024B00000440140004801402DE9F05F05461948FD
:1024C0000668194807680768184800F0A5F97A28CF
:1024D00003D11748174908600BE0144800F09CF935
:1024E000792803D114481349086002E000201149FB
:1024F0000860284604F0F4F98346394604F050FA9F
:10250000814631460B48006804F04AFA8246494643
:1025100004F046F8804604F0A7F904462046BDE8DA
:10252000F09F000094000020980000200038014037
:10253000000020C1E80000200000204110B540F25A
:102540002551184800F0ADF838B340F22551154830
:1025500000F08CF8134800F05FF9C4B2124800781C
:1025600040B9012C06D101200F49087000200F4905
:10257000087016E00C48007801280FD10B4801784C
:102580000078401C094A10700948445410460078ED
:10259000052806DD00200449087002E000200249F9
:1025A000087010BD003801405C000020560000207B
:1025B0005700002010B540F22551264800F071F870
:1025C000002846D040F22551224800F04FF821481B
:1025D00000F022F904462048007840B9012C06D1C9
:1025E00001201D49087000201C49087031E01A487C
:1025F000007801282AD1194802780078401C174B2E
:1026000018701748845418460078052821DD0020EA
:1026100011490870124800796B281AD110480078C7
:1026200000060F49497840EA01400D49897840EA9F
:1026300001200B49C97808430A4908600868C11796
:1026400000EB11410914084A116002E00020024920
:10265000087010BD00440040320100202C01002011
:102660002D010020240100202801002010B50022A7
:10267000002340F66A14A14200D100BF0A120124CF
:102680009440A3B2DC43048010BD21B1828942F49E
:102690000052828104E082894DF6FF731A408281E4
:1026A000704770B50246002400230025002040F644
:1026B0006A16B14200D100BFC1F3421501F01F03F9
:1026C000012606FA03F3012D02D19689334006E074
:1026D000022D02D1168A334001E0968A33400C1253
:1026E000012606FA04F41688344013B10CB1012017
:1026F00000E0002070BDF0B5034600240026002550
:10270000002040F66A17B94200D100BF1846C1F355
:10271000421401F01F06012707FA06F5012C01D12A
:102720000C3004E0022C01D1103000E014301AB15A
:1027300007682F43076002E00768AF430760F0BDFA
:102740002DE9F04786B005460E460024A24600BF9C
:10275000A1460027B08900B100BF2F462C8A4CF655
:10276000FF700440F08804432C82AC894EF6F310CD
:102770000440B08831890843718908430443AC811F
:10278000AC8A4FF6FF400440B0890443AC8201A8F4
:10279000FFF76CFA1F48874202D1DDF810A001E074
:1027A000DDF80CA0A88900F4004040B10AEBCA0093
:1027B00000EB0A1031684900B0FBF1F807E00AEBC2
:1027C000CA0000EB0A1031688900B0FBF1F8642000
:1027D000B8FBF0F004012009642101FB1089A889ED
:1027E00000F4004040B1322000EBC900B0FBF1F032
:1027F00000F00700044308E0322000EB09106421D8
:10280000B0FBF1F000F00F0004432C8106B0BDE8EE
:10281000F08700000038014001468888C0F30800B6
:10282000704700BFFEE7000010B586B004460121E6
:1028300044F20400FFF70AFA4FF40070ADF81400F8
:1028400003208DF8160018208DF8170005A91C48E4
:10285000FEF75CF94FF48060ADF8140004208DF8A9
:10286000170005A91648FEF751F925208DF800003C
:1028700003208DF801008DF8020001208DF803007F
:102880006846FFF74BF901940020ADF80800ADF859
:102890000A00ADF80C00ADF810000C20ADF80E00E9
:1028A00001A90848FFF74CFF012240F225510548D5
:1028B000FFF721FF01210348FFF7E7FE06B010BD37
:1028C00000080140003801402DE9F14F4148FFF771
:1028D000A3FF522803D14048404908600BE03D481F
:1028E000FFF79AFF422803D13D483C49086002E0C7
:1028F00000203A490860009803F0F2FF0546374887
:102900000168284604F049F9044603F0ADFF354953
:1029100008603548006803F026FB0646334A344B0E
:1029200003F038FB04460D462E48006803F01BFBFD
:102930000646304A304B03F02DFB804622462B469C
:1029400003F0DAF8824603F0DFFA2C490860084603
:102950000068254908602A48006828490968084431
:102960002749086008460068264909680844244940
:10297000086008460068642801DD6420086020487B
:10298000006810F1640F03DA6FF063001C490860FF
:102990001B48006803F0A4FF07461B48016838463F
:1029A00003F0FEFF05460F48006803F099FF074655
:1029B00016480168384603F0F3FF0646294603F03F
:1029C000EFFD044603F050FF114908600846006817
:1029D000BDE8F88F0038014000000CC20000002064
:1029E00000000C42B8000020C00000200AD7A370ED
:1029F0003D0AE73FEC51B81E85EBD13FBC000020FB
:102A0000C4000020C80000208800002084000020AE
:102A1000CC0000202DE9F04704460D4629460D481C
:102A2000006803F0BDFF81460B480168204603F0B3
:102A3000B7FD824609480168504603F0B1FF804661
:102A4000494603F0ADFD074603F00EFF064630464B
:102A5000BDE8F08780000020780000207C00002086
:102A6000490050EAC12018BF04204A0D18BF40F0A9
:102A7000010040F2FF72B2EB515F08BF40F002006C
:102A8000012808BF052070472DE9F0414F1E00EBDB
:102A9000C7010446D1E9000115461E4637F006027B
:102AA0000DD02A46334603F075FA7F1E04EBC703A8
:102AB000D3E9002303F020F837F00602F1D1022F0A
:102AC00025D0042F13D0062F18BFBDE8F0812A4669
:102AD000334603F05FFAD4E90A2303F00DF82A46DF
:102AE000334603F057FAD4E9082303F005F82A46E1
:102AF000334603F04FFAD4E9062302F0FDFF2A46DD
:102B0000334603F047FAD4E9042302F0F5FF2A46DE
:102B1000334603F03FFAD4E9022302F0EDFF2A46E0
:102B2000334603F037FAD4E90023BDE8F04102F060
:102B3000E3BF012204F0E3B802F0DEBF0022134637
:102B40001046114603F088B8024A0020110704F02D
:102B5000D6B8000001FDFFFF30380A2801D201205D
:102B600070470020704700BF704700002DE9FE4FFE
:102B700006460F460025684601F0DCF9002442E0D5
:102B800056F8240057F82410A0EB010ABAF1000F00
:102B900001DB514601E0CAF10001084603F0A0FE46
:102BA00083464FF08F4103F069FD80465DF82400B5
:102BB000002103F025FE16D05DF82410404603F0F6
:102BC0005DFD82464FF07E5103F0F2FF814629F011
:102BD000004A0F48416A504603F0AEFF12D201206E
:102BE000A04005430EE00A48C169404603F0A4FE38
:102BF00005D30748016A404603F09EFF02D2012038
:102C0000A0400543641C032CBADB2846BDE8FE8FB8
:102C1000387F00082DE9F04D8D4F21F0004A86B035
:102C200005460C46BA452ADBAAEB070028430AD022
:102C30008848824501DC1AD1CDB106B02846BDE8EE
:102C4000F04DFFF776BF844A844B284603F0A2F983
:102C500007460E46824A834B2846214603F09AF9DE
:102C600006B03A463346BDE8F04D02F045BF0120BC
:102C7000FDF7AEFC06B0BDE8F04DFFF75FBF7A4848
:102C8000824542DABAF1795F0BDA2846FFF7E8FEAF
:102C9000042808BFFFF758FF284606B02146BDE8C4
:102CA000F08D2A460B46104603F074F9834602461F
:102CB0006E480E460B4606217844FFF7E5FE5A465D
:102CC000334603F067F9804669488A465A463346D8
:102CD00004217844FFF7D8FE5A46334603F05AF9E8
:102CE00000223B4602F008FF02460B464046514692
:102CF00002F0B2FF2A46234603F04CF906B02A46FA
:102D00002346BDE8F04D02F0F7BE284624F000410E
:102D100000223D463B4603F03BFA4FF0FF3203F002
:102D2000EEFF0646024653480F460B4606217844FE
:102D3000FFF7AAFE32463B4603F02CF9CDE900012D
:102D40004D4832463B4604217844FFF79DFE32460B
:102D50003B4603F01FF900222B4602F0CDFE8346CE
:102D600002913046394602F06FFE804643480D46D8
:102D7000504517DCDDE900015A46029B02F06CFF6A
:102D800042462B4603F006F942462B4602F0B4FEBB
:102D9000012203F0B4FF304A304B03F0EBFA304A23
:102DA000304B4CE04FF0000A52460B46404602F0D2
:102DB000A3FECDE9031052462B461046194603F0F8
:102DC000E9F832463B4603F0E3F9DDE9033202F06D
:102DD00043FF06460F46DDE900015A46029B02F01A
:102DE0003BFF8346009101223046394603F087FFBE
:102DF000194A1A4B03F0CCF906460F460122404609
:102E0000294603F07CFF5A46009B03F0C3F8324684
:102E10003B4603F0AFFA06460F46012250462946CC
:102E200003F06DFF0E4DDFF858802A46434603F04D
:102E3000AFF932463B4603F0ABF92A46434603F06E
:102E4000A7F9002CD8BF81F0004106B0BDE8F08D95
:102E50000000F03F0000F07F075C143326A6913C91
:102E6000182D4454FB21F93F0000E03FAC5E000008
:102E7000C25E0000365E00004C5E00003333EF3F60
:102E8000FB21E93F2DE9F84F04460D4621F00040B3
:102E900000917349814211DC7249884201DC06D1FC
:102EA0002CB120462946BDE8F84FFFF742BE6E48D8
:102EB000002DCCBF6D496E49BDE8F88F6D49814248
:102EC00011DD6D498142D8BF4FF0FF366DDD2046E0
:102ED0002946FFF7C5FD042808BFFFF735FE204649
:102EE0002946BDE8F88F6549654F25F000458142C8
:102EF00033DD6449814219DD002632464FF08043BC
:102F00002046294602F0F8FD80468A4601222046E6
:102F1000294603F0F4FE00223B4603F02BFA42461A
:102F2000534602F099FE04460D463EE0012600227B
:102F3000BA463B462046294602F0DEFD80460F4653
:102F4000002253462046294603F014FA42463B46E7
:102F500002F082FE04460D4627E04B4981421BDD0C
:102F6000DFF828A10226002253462046294603F016
:102F700011F800223B4602F0BFFD80460F460022BA
:102F800053462046294603F0F5F942463B4602F0F7
:102F900063FE04460D4608E0032622462B46002029
:102FA0003B4902F059FE04460D4622462B46104688
:102FB000194602F0EFFF8B46824602460B4602F0AE
:102FC000E9FF07460246334888460B460621784407
:102FD000FFF75AFD52465B4602F0DCFF82462E4860
:102FE0008B463A46434605217844FFF74DFD3A4665
:102FF000434602F0CFFF02460B46002E504659468C
:103000000CDA02F079FD22462B4602F0C3FF01B034
:1030100022462B46BDE8F04F03F0BAB802F06CFD33
:1030200022462B4602F0B6FF1C4A7A4402EBC60346
:10303000D3E9002303F09EF922462B4603F09AF9C8
:10304000174A7A4402EBC603D3E9002303F0A0F841
:10305000009A002AB8BF81F00041BDE8F88F000057
:10306000000010440000F07F182D4454FB21F93F6C
:10307000FB21F9BF0000DC3F0000203E0000F33FD1
:103080000000F03F0000E63F008003400000F83FF2
:103090000000F0BF4E5C00000C5C0000AA5B00006A
:1030A000725B00002DE9F04D9446CCF1000423F052
:1030B00000464CEA0404524F46EAD4749A468846C5
:1030C00021F00042BC4206D8454240EA050442EAEB
:1030D000D474BC4204D9BDE8F04D6246FFF72CBD64
:1030E000AAF14055A5F17F6555EA0C040BD00224E6
:1030F00004EAAA74434DDFF810E144EAD87452EAB6
:10310000000B04D00CE0BDE8F04DFFF7BBBE002C77
:1031100014BF012CBDE8F08D022C30D0032C32D02E
:1031200056EA0C0B0AD0BE4220D1BA4209D126F091
:10313000804622F080423346114617E000291ADB10
:1031400025E0DFF8C8B0FB44002C04BFDBE9000138
:10315000BDE8F08D012C02BFDBE9000181F00041E8
:10316000BDE8F08D022C0AD0032C0CD0BA4212D14B
:10317000B8F1000F0BDA23482549BDE8F08D284649
:103180002449BDE8F08D28467146BDE8F08D1D4804
:103190002149BDE8F08D921B12153C2AC4BF194885
:1031A0001D490EDCBAF1000FBEBF12F13C0F00202A
:1031B000014606DB624602F04FFD21F00041FFF7B9
:1031C00061FE002C08BFBDE8F08D012C04BF81F02A
:1031D0000041BDE8F08D114A114B022C07D003F0DD
:1031E000C9F82A46BDE8F04D0A4B03F0C3B803F016
:1031F000C1F82A46BDE8F04D064B02F0C9BF0000F9
:103200000000F07F182D4454FB2109C0065B00002C
:10321000FB21F9BFFB210940FB21F93F075C143377
:1032200026A6A13C2DE9F0410446E07800F0C00656
:10323000E07800F03F05607800F0010098B1EF10F1
:103240002846E91705EB5171C910A5EBC101491CCE
:1032500001F0FF080B48006820B10A4841460268A7
:103260003846904700BF607800F0080030B105484C
:10327000406818B1B011034A516888470020BDE882
:10328000F08100003C01002010B56FF00400FEF753
:10329000F5FE0A4800680A49B0FBF1F009490870D8
:1032A0000846007800EB4001C1EBC0104FF6FF71FB
:1032B00001EAC0000449088010BD00002000002081
:1032C00000127A00480000204A0000200146114AFE
:1032D00012884A434FF0E0235A6100229A611A464D
:1032E000126942F001021A6100BF4FF0E02210693A
:1032F00000F001021AB100F48032002AF5D04FF03C
:10330000E022126922F001024FF0E0231A6100224C
:103310009A6170474A0000200146114A12784A43D8
:103320004FF0E0235A6100229A611A46126942F076
:1033300001021A6100BF4FF0E022106900F00102A3
:103340001AB100F48032002AF5D04FF0E022126961
:1033500022F001024FF0E0231A6100229A617047C7
:103360004800002038B5044664B120208DF80000E4
:1033700028208DF8010030208DF8020038208DF8CB
:10338000030004E0A32204216846FDF799F86A4689
:10339000042140F69E2002F079FA01F063FE38BD68
:1033A0003EB5044602208DF80000CA208DF80100C9
:1033B000E3208DF8020009208DF803006A460421FD
:1033C000682002F063FAA3208DF8000004F04000AA
:1033D00048B1C0208DF80100C8208DF80200C2203D
:1033E0008DF8030006E0A3208DF801008DF802009F
:1033F0008DF8030004F4C07048B1C4208DF80400B7
:10340000CC208DF80500C6208DF8060006E0A3202C
:103410008DF804008DF805008DF80600A3208DF8C6
:1034200007008DF808008DF809006A460A2140F669
:10343000A72002F02BFA04F0030018B120208DF829
:10344000000002E0D8208DF800006A46012140F615
:10345000B62002F01BFA04F0200018B1012000F0A1
:10346000ADF802E0002000F0A9F804F4C07008B341
:1034700004F4807060B1B2208DF800008B208DF8CC
:103480000100B6208DF802009B208DF803000BE0B0
:10349000B0208DF8000080208DF80100B4208DF858
:1034A000020090208DF803006A46042140F6A22015
:1034B00002F0ECF904F0010020B3F8208DF80000D0
:1034C0006A4601214FF40B6002F0E0F9FA2107206F
:1034D00000F02CFC072000F0F3FB012000F013FCAF
:1034E000642000F0F3FC4FF4FA7000F002FDC821F4
:1034F000304800F0A3FB282000F0BCFB0A2000F0BD
:10350000CCFB08E0D8208DF800006A4601214FF47A
:103510000B6002F0BBF904F0020018B1D9208DF85D
:10352000000002E0D8208DF800006A46012140F238
:103530003D7002F0ABF904F0040018B1012000F076
:1035400069F802E0002000F065F804F0100018B1FE
:103550000120FFF707FF02E00020FFF703FF44F020
:1035600008001549488101F07DFD0020124988734B
:1035700004F0400018B10846807B801D887304F475
:10358000C07020B10C48807B801D0B49887304F00B
:10359000140020B10848807B10300749887304F07C
:1035A000030020B10448807B001D0349887300207C
:1035B0003EBD000009E3CA023C0100203EB50446BE
:1035C0006CB10EA1D1E900208968CDE900200291FB
:1035D0006A4609214FF4976002F058F93EBD0AA2ED
:1035E000D2E900109268CDE9010200916A460921F2
:1035F0004FF4976002F04AF9F0E70000B8AAB38DE3
:10360000B4980D355D000000B8AAAAAAB088C3C559
:10361000C700000038B5044664B1C0208DF8000032
:10362000C2208DF80100C4208DF80200C6208DF85C
:10363000030004E08B2204216846FCF741FF6A4640
:10364000042140F6982002F021F901F00BFD38BD6D
:1036500010B5C8234FF48062024940F6F63001F0FD
:1036600095FB10BD607F00082DE9F04F8DB0074637
:10367000884615469946DDE9166B00240020308007
:103680006B49887B5A4605A901F04CFC18B1601EB5
:103690000DB0BDE8F08F6648807A00F01400002875
:1036A00067D09DF8140000069DF8151040EA01400F
:1036B0009DF8161040EA01209DF817100843286075
:1036C0009DF8180000069DF8191040EA01409DF889
:1036D0001A1040EA01209DF81B10084368609DF80D
:1036E0001C0000069DF81D1040EA01409DF81E10C8
:1036F00040EA01209DF81F100843A8609DF82000B3
:1037000000069DF8211040EA01409DF8221040EA91
:1037100001209DF823100843E86004F11000C4B2B2
:10372000286800140190686800140290A8680014CA
:103730000390E8680014049001984043029901FB4B
:103740000100039901FB0100049901FB010ABAF190
:10375000706F02DBBAF1885F05DD01F083FC0020A9
:103760003080401E94E7B6F9000040F4807030804D
:1037700000BF2F48807A00F0400020B305A9601CEC
:10378000085C095D40EA012000B2A8F8000005A924
:10379000E01C095C05AAA01C105C41EA002000B2F4
:1037A000A8F8020005A9601D095C201D105C41EA13
:1037B000002000B2A8F80400A01DC4B2B6F90000B1
:1037C00040F0080030801A48408900F4C07008B307
:1037D00005A9601C085C095D40EA012000B2388040
:1037E00005A9E01C095C05AAA01C105C41EA0020A8
:1037F00000B2788005A9601D095C201D105C41EABB
:10380000002000B2B880A01DC4B2B6F9000040F09C
:10381000700030800648807A00F0030018B105A9D6
:103820000819FFF7FFFC484600F046FF00202FE78D
:103830003C01002070B588B0064601A801F0FAF8F6
:10384000BDF804000021C90341EA5045C4034448BF
:10385000007A00F0030056F8200005904048007AF6
:1038600000F0040010B10598404205903C48007AF1
:10387000C0F3C10056F8200006903948007A00F0E5
:10388000200010B10698404206903548007AC0F3F7
:10389000811056F8200007903148008900F48070AC
:1038A00010B10798404207900598C117A0FB042368
:1038B00001FB043100FB0510810041EA9270059084
:1038C0000698C117A0FB042301FB043100FB05107F
:1038D000810041EA927006900798C117A0FB04236B
:1038E00001FB043100FB0510810041EA9270079052
:1038F0000598000E8DF808000598000C8DF8090059
:103900000598000A8DF80A000598C0B28DF80B00E2
:103910000698000E8DF80C000698000C8DF80D002E
:103920000698000A8DF80E000698C0B28DF80F00B8
:103930000798000E8DF810000798000C8DF8110004
:103940000798000A8DF812000798C0B28DF813008E
:1039500002AA0C214FF4257001F098FF08B070BD49
:103960003C01002030B585B0044616A207CA02AB60
:1039700007C3C82C03DD4FF0FF3005B030BDC820B1
:1039800090FBF4F0401E85B2280A8DF80000E8B2E2
:103990008DF801006A46022140F2162001F076FF00
:1039A00010B14FF0FF30E8E702AA0C2140F6C12029
:1039B00001F06CFF10B14FF0FF30DEE70448848166
:1039C0000020DAE7FEF2ABC4AAF1DFDFBBAFDFDF36
:1039D0003C0100201FB504464848007A00F003006F
:1039E00054F8200001904548007A00F0040010B11E
:1039F0000198404201904148007AC0F3C10054F858
:103A0000200002903D48007A00F0200010B102989A
:103A1000404202903948007AC0F3811054F82000E7
:103A200003903648008900F4807010B1039840423A
:103A300003903349019880FB0101800F40EA810027
:103A400001902F49029880FB0110820042EA917098
:103A500002902B49039880FB0110820042EA91708A
:103A600003900198000E8DF800000198000C8DF86D
:103A700001000198000A8DF802000198C0B28DF88B
:103A800003006A4604214FF4747001F0FFFE18B180
:103A90004FF0FF3004B010BD0298000E8DF800000A
:103AA0000298000C8DF801000298000A8DF80200BF
:103AB0000298C0B28DF803006A4604214FF4757075
:103AC00001F0E4FE10B14FF0FF30E3E70398000E81
:103AD0008DF800000398000C8DF801000398000A8F
:103AE0008DF802000398C0B28DF803006A460421E5
:103AF0004FF4767001F0CAFECCE700003C010020D4
:103B000009E3CA0210B586B0044647A000680390D6
:103B100046A00068029046A00068019045A0006899
:103B2000009004F0030003A9085C8DF8140003A8BA
:103B3000C4F3C101405C8DF8150003A8C4F38111E2
:103B4000405C8DF8160004F0030002A9085C8DF8B3
:103B5000100002A8C4F3C101405C8DF8110002A856
:103B6000C4F38111405C8DF8120005AA032140F2D4
:103B7000264001F08BFE18B14FF0FF3006B010BDAB
:103B800004AA032140F22A4001F080FE10B14FF058
:103B9000FF30F3E7019805900098049004F00400CA
:103BA00058B19DF8140040F001008DF814009DF804
:103BB000100040F001008DF8100004F0200058B112
:103BC0009DF8150040F001008DF815009DF81100DA
:103BD00040F001008DF8110004F4807058B19DF898
:103BE000160040F001008DF816009DF8120040F01C
:103BF00001008DF8120005AA03214FF4886001F03E
:103C000045FE10B14FF0FF30B8E704AA032140F29F
:103C1000314001F03BFE10B14FF0FF30AEE70648F7
:103C200004810020AAE700004CCD6C000CC92C00D8
:103C300036567600264666003C010020F8B505465B
:103C40000E464FF47A7095FBF0F000FB06F4200E60
:103C50008DF80000200C8DF80100200A8DF802007C
:103C6000E0B28DF803006A4604214FF4AE7001F013
:103C70000DFEF8BD38B50446052094FBF0F084B283
:103C800020128DF80000E0B28DF801006A46022192
:103C90004FF4AD7001F0FAFD38BD38B5044605208B
:103CA00094FBF0F084B220128DF80000E0B28DF8A1
:103CB00001006A4602214FF4AC7001F0E7FD38BD07
:103CC00038B504460020009004F0010020B19DF8B2
:103CD000000040F03000009004F0020020B19DF898
:103CE000000040F00C00009004F0040020B19DF8AA
:103CF000000040F0030000906A4601214FF4A470D8
:103D000001F0C4FD38BD38B50446012C01DA0124A8
:103D100002E0042C00DD0424601EC0B200906A465C
:103D2000012140F24F1001F0B1FD38BD2DE9FC47F3
:103D300006460F4606F0070010B1B7F5C86F03DD61
:103D40004FF0FF30BDE8FC87384602F0E1FD8146C8
:103D5000594902F093FC8046684600F045FE9DF804
:103D60000000022806D0042816D0082826D01028E3
:103D700048D135E04FF08D41404602F011FE8146BA
:103D800002F08EFD84B24D49404602F009FE8146A4
:103D900002F086FD85B238E04FF08C41404602F0DB
:103DA000FFFD814602F07CFD84B24549404602F0A9
:103DB000F7FD814602F074FD85B226E04FF08B419D
:103DC000404602F0EDFD814602F06AFD84B23D49B5
:103DD000404602F0E5FD814602F062FD85B214E046
:103DE0004FF08A41404602F0DBFD814602F058FD6B
:103DF00084B23549404602F0D3FD814602F050FDC1
:103E000085B202E04FF0FF309CE700BF20128DF832
:103E10000400E0B28DF8050028128DF80600E8B223
:103E20008DF8070006F00100A0B101AA02214FF4AD
:103E3000EA7001F02BFD10B14FF0FF3082E70DF179
:103E4000060202214FF4927001F020FD10B14FF0F4
:103E5000FF3077E706F00200A0B101AA02214FF47B
:103E6000EC7001F013FD10B14FF0FF306AE70DF177
:103E7000060202214FF4947001F008FD10B14FF0DA
:103E8000FF305FE706F00400A0B101AA02214FF461
:103E9000EE7001F0FBFC10B14FF0FF3052E70DF176
:103EA000060202214FF4967001F0F0FC10B14FF0C1
:103EB000FF3047E7002045E7000048430000404648
:103EC0000000C045000040450000C04438B504462D
:103ED000052094FBF0F085B228128DF80000E8B2BE
:103EE0008DF801006A4602214FF4EF7001F0CEFC1C
:103EF00038BD38B50446052094FBF0F085B2281291
:103F00008DF80000E8B28DF801006A4602214FF4F6
:103F1000ED7001F0BBFC38BD00BF054A128802F00D
:103F20004002002AF9D0C2B2014B1B1D1A80704713
:103F3000003801407CB5054628494968087801AB3E
:103F400004220D21FDF701FD08B107207CBD9DF87D
:103F50000700C0F301109DF8041001F0E00140EAF1
:103F6000E1008DF800009DF80700C0F381009DF886
:103F7000051001F0E00140EAE1008DF801009DF834
:103F8000070000F003009DF8061001F0E00140EA90
:103F9000E1008DF8020000241CE01DF8040018B9AF
:103FA000002045F8240013E00D4845F8240006E001
:103FB00055F824000B4902F0F3FC45F824001DF8E5
:103FC0000400401EC0B20DF804000028F0D100BF6C
:103FD000601CC4B2032CE0DB0020B7E7EC0000203B
:103FE0007B14AE3E1D5A843F2DE9F04F87B0054645
:103FF0000C46914601208DF8100000208DF811002C
:10400000FE4A1268917CFD4A5268107804AB022285
:10401000FDF741FD20B14FF0FF3007B0BDE8F08F54
:10402000C820FFF753F900208DF81000F34A1268FA
:10403000D17BF24A5268107804AB0122FDF72BFDC8
:1040400010B14FF0FF30E8E7EC4A12685179EB4AC3
:104050005268107804AB0122FDF71DFD10B14FF03E
:10406000FF30DAE7E54A1268917CE44A526810783A
:1040700004AB0122FDF70FFD10B14FF0FF30CCE78C
:10408000DE4A1268D17DDD4A5268107804AB012205
:10409000FDF701FD10B14FF0FF30BEE7D74A1268BF
:1040A0001179D64A5268107804AB0122FDF7F3FC6F
:1040B00010B14FF0FF30B0E70C208DF81000CF4A60
:1040C00012681179CD4A5268107804AB0122FDF7CD
:1040D000E2FC10B14FF0FF309FE70F20FFF7F6F83A
:1040E000C648806A407A8DF81000C44A12689178F8
:1040F000C24A5268107804AB0122FDF7CCFC10B123
:104100004FF0FF3089E7BD48806A007A8DF81000D3
:10411000BA4A12685178B94A5268107804AB012241
:10412000FDF7B9FC10B14FF0FF3076E7B9F1000FA1
:1041300007D0B248806A807A40F0E0008DF8100025
:1041400004E0AE48806A807A8DF81000AB4A1268AD
:104150009179AA4A5268107804AB0122FDF79BFCC2
:1041600010B14FF0FF3058E7B9F1000F07D0A34866
:10417000806AC07A40F0E0008DF8100003E0A048AB
:10418000C07A8DF810009D4A1268D1799B4A526816
:10419000107804AB0122FDF77EFC10B14FF0FF3028
:1041A0003BE7B9F1000F02D0C820FFF78FF840209D
:1041B0008DF81000914A12681179904A526810786F
:1041C00004AB0122FDF767FC10B14FF0FF3024E78C
:1041D00078208DF81000894A12685179874A526810
:1041E000107804AB0122FDF756FC10B14FF0FF3000
:1041F00013E783498889FFF769F800208DF81000DC
:104200007E4A126851797D4A5268107804AB0122C7
:10421000FDF741FC10B14FF0FF30FEE6774A12681F
:10422000917A764A5268107804AB0222FDF78DFB32
:1042300010B14FF0FF30F0E69DF811009DF810101E
:1042400040EA012B0C209BFBF0F0C6B20020A860D6
:1042500068602860A06060602060824665E0674A10
:104260001268D17A654A5268107804AB0C22FDF7C7
:104270006CFB10B14FF0FF30CFE69DF811009DF8B8
:10428000101040EA012000B2ADF808009DF81300BC
:104290009DF8121040EA012000B2ADF80A009DF826
:1042A00015009DF8141040EA012000B2ADF80C0092
:1042B000BDF90810206808442060BDF90A10606844
:1042C00008446060BDF90C10A0680844A0609DF827
:1042D00017009DF8161040EA012000B2ADF800006A
:1042E0009DF819009DF8181040EA012000B2ADF8C1
:1042F00002009DF81B009DF81A1040EA012000B250
:10430000ADF80400BDF90010286808442860BDF924
:104310000210686808446860BDF90410A868084481
:10432000A8600AF1010000F0FF0AB24597DB3448AB
:10433000D0F800C02868C117090441EA10410704F9
:10434000624600233846FBF786FF32460023CDE95C
:104350000201FBF780FF28602948D0F800C0686898
:10436000C117090441EA1041070462460023384698
:10437000FBF771FF32460023CDE90201FBF76BFF2B
:1043800068601F48D0F800C0A868C117090441EA56
:1043900010410704624600233846FBF75CFF3246B3
:1043A0000023CDE90201FBF756FFA8601448D0F8BE
:1043B00004C02168C817000440EA11480F0462468F
:1043C000002338464146FBF746FF32460023CDE93D
:1043D0000201FBF740FF20600948D0F804C0606884
:1043E000C117090441EA1041070462460023384618
:1043F000FBF731FF3246002304E00000EC00002010
:10440000387F0008CDE90201FBF725FF6060114805
:10441000D0F804C0A068C117090441EA104107049C
:10442000624600233846FBF716FF32460023CDE9EB
:104430000201FBF710FFA060A068002804DDA0685F
:10444000A0F58030A06003E0A06800F58030A06097
:104450000020E2E5387F00082DE9FC5F06460F46A4
:1044600000253D494968087801AB03220D21FDF77D
:104470006CFA10B10720BDE8FC9F9DF8040000F025
:104480001F008DF804009DF8050000F01F008DF856
:1044900005009DF8060000F01F008DF806000024BE
:1044A00056E056F8240057F82410A0EB010BBBF19E
:1044B000000F01DB594601E0CBF10001084602F094
:1044C0000FFA4FF08F41009002F0D8F8814601A812
:1044D000005D68B32149086802F01AFA834659461C
:1044E0001F4802F0CBF8804604E01E49404602F027
:1044F00057FA804601A8005D401EC0B201A90855C8
:104500000028F2D14146484602F0B8F883464FF001
:104510007E5102F04DFB82462AF0004B0F48816924
:10452000584602F009FB12D20120A04005430EE0DC
:104530000A480169484602F0FFF905D30748416976
:10454000484602F0F9FA02D20120A0400543641C5B
:10455000032CA6DB28468EE7EC000020387F0008FD
:1045600000B04C4554E3853F10B50446204600F0AA
:104570000FF80346E01C00F00BF843EAC00083B2DA
:10458000A01D00F005F843EA801083B2184610BD64
:10459000014691F90020002A01DD00201EE091F97A
:1045A0000020002A01DA042018E091F90120002AF5
:1045B00001DD012012E091F90120002A01DA052035
:1045C0000CE091F90220002A01DD022006E091F9B9
:1045D0000220002A01DA062000E0072070470000D0
:1045E0001CB54FF4A060FDF7D1FAFEF74DFEFCF7C5
:1045F00071FBFDF783FAFDF757FD4FF41640FEF708
:1046000013F9FCF72BFFFCF713F9FDF719FDFCF785
:10461000F1F840F2CF2140F2CF70FDF7C1FA23212B
:104620000920FDF7B5FD23210920FDF727FEFDF741
:104630000FF900F08DF9FCF761FFFCF7EDFB0020AE
:10464000FCF7B8FB4FF6FF70174908802AE00020FE
:10465000FCF75EFB01901548006802F021F9044662
:104660001020042322460A2100903220FCF7D0FDBE
:104670000F48006802F014F9044610200423224673
:10468000282100903220FCF7C3FD0A48006802F0A0
:1046900007F90446102004232246462100903220C8
:1046A000FCF7B6FDD3E70000340100200C00002029
:1046B00010000020140000207047000070B5044670
:1046C000002624F00104184890F8240008B10020C6
:1046D00070BD1548807A10B94FF0FF30F8E71248E6
:1046E000057C807A2040104908740846007CA0426E
:1046F00002D04FF0FF3600E0002614B90A48007DD2
:1047000018B1012001F058F902E0002001F054F93D
:104710003CB100F0A7FC20B1034805744FF0FF3016
:10472000D6E73046D4E70000EC0000202DE9F04F3A
:1047300099B004460D4616464FF07E574FF00008DC
:104740004FF000094FF0000A12A813A918AB0EAAE7
:10475000CDE9001014A916A8FEF786FF18B10120B4
:1047600019B0BDE8F08FBDF84C0000F4807000284F
:104770007ED00E9802F0B4F883464FF09D4101F0D0
:104780007DFF07460F9802F0ABF883464FF09D413E
:1047900001F074FF8046109802F0A2F883464FF0B3
:1047A0009D4101F06BFF8146119802F099F8834614
:1047B0004FF09D4101F062FF824639464FF0804044
:1047C00002F0EEF84946059002F0EAF841460790FB
:1047D0004FF0404002F0E4F85146059002F0E0F856
:1047E0000690079901F0DCFE834601F0ADFECDE9AD
:1047F0000801FEF70FFA4FF06632544BCDE90A017B
:1048000001F0C8FBCDE90C0101F044F920604946F4
:104810004FF0804002F0C4F84946029002F0C0F820
:10482000414604904FF0404002F0BAF841460290F1
:1048300002F0B6F80390049902F0BAF983464FF0FB
:104840007E5101F0ADFE059001F07EFECDE908013C
:1048500039464FF0804002F0A3F84146039002F041
:104860009FF8494604904FF0804002F099F800E02C
:1048700068E05146039002F093F88346049901F0F2
:104880008FFE059001F060FECDE90601DDE9082309
:10489000FEF708FC4FF066322C4BCDE90A0101F01F
:1048A00079FBCDE90C0101F0F5F82860514650463E
:1048B00002F076F849460490484602F071F8414605
:1048C0000390404602F06CF839460190384602F0F9
:1048D00067F80090019901F063FE0290039902F0DD
:1048E00067F98346049902F063F9059001F02CFE04
:1048F000CDE908015146384602F052F84946049085
:10490000404602F04DF80390049901F049FE4FF043
:104910008041059002F044F8834601F015FECDE990
:104920000601DDE90823FEF7BDFB4FF06632074BB9
:10493000CDE90A0101F02EFBCDE90C0101F0AAF846
:10494000306001E002200BE7002009E766A64C403A
:1049500070B50024FCF75CFE00F020F900283DD182
:10496000782000F02BFFC4B20CB1012070BD78207C
:10497000FFF7A4FEC4B20CB10220F7E7642000F0F8
:10498000CFFEC4B20CB10320F0E7FEF761FEC4B263
:104990000CB10420EAE71348FFF7E6FD0546FFF7F0
:1049A000B1F8C4B20CB10520E0E740F27310FEF795
:1049B000F7FCC4B20CB10620D8E76420FEF7D2FFA2
:1049C000C4B20CB10720D1E700F0ABFF04460120D0
:1049D00000F0A2FDC4B21CB10920C7E70A20C5E758
:1049E0000020C3E71801002001461148407A30B189
:1049F000012807D0022808D003280CD108E00220A3
:104A000008700BE00420087008E00820087005E03A
:104A10001020087002E04FF0FF30704700BF0448DC
:104A2000C07C18B108784006000E08700020F4E73A
:104A3000EC00002001461348407A30B1012808D02C
:104A400002280AD0032810D10BE04FF480400880E0
:104A50000EE041F69C7008800AE04FF48050088018
:104A600006E04FF40060088002E04FF0FF3070472E
:104A700000BF0448C07C10B10888401008800020A6
:104A8000F5E70000EC00002001460248007C0870B9
:104A900000207047EC00002001460F48007A30B13A
:104AA000012807D0022809D003280FD10AE0FA20F4
:104AB00008800EE04FF4FA7008800AE04FF47A7034
:104AC000088006E04FF4FA60088002E000200880C9
:104AD00000BF00BF00207047EC00002001460E48D8
:104AE000007A30B1012807D0022808D003280CD161
:104AF00008E00A4808600BE00948086008E0094837
:104B0000086005E00848086002E04FF0FF30704799
:104B100000BF0020FBE70000EC0000200000034382
:104B2000000083423333034233338341014612484A
:104B3000C07A082817D2DFE800F01704070A0D1022
:104B40001318BC20088013E06220088010E02A209F
:104B500008800DE0142008800AE00A20088007E0A1
:104B60000520088004E000BF00BF0020088000BFCF
:104B700000BF002070470000EC00002001460648FE
:104B800090F8240010B14FF0FF3070470248C08900
:104B900008800020F9E70000EC0000201CB5802010
:104BA0008DF80000654A1268917C644A526810785A
:104BB0006B460122FCF76FFF10B14FF0FF301CBDB8
:104BC0006420FEF783FB00208DF800005B4A12682A
:104BD000917C5A4A526810786B460122FCF75BFFC1
:104BE00010B14FF0FF30EAE7544A1268917D534A02
:104BF000526810786B460622FCF7A7FE10B14FF002
:104C0000FF30DCE79DF80500C007400F9DF803105A
:104C100001F0010140EA41009DF8011001F001019D
:104C200040EA010494B1012C03D101214348C1742D
:104C300031E0022C03D100214048C1742BE0214611
:104C40003FA0FBF72DFB4FF0FF30B8E73B4A12685F
:104C5000D1783A4A526810786B460122FCF775FE0B
:104C600010B14FF0FF30AAE79DF8000000F00F04EC
:104C70002CB93D48FBF714FB4FF0FF309FE7042CA5
:104C800006D13AA0FBF70CFB01212C48C17402E0CD
:104C900000212A48C174FF2128488172FF2027493A
:104CA0000872FF2125484172C1724FF6FF71C18120
:104CB000FF21017481740121017380F82210002109
:104CC00080F82310417501751630016041608160E4
:104CD000163880F8241080F82510C1844FF4FA604B
:104CE00000F062FC10B14FF0FF3068E7022000F0E6
:104CF0002BFB10B14FF0FF3061E72A2000F0CEFC13
:104D000010B14FF0FF305AE7322000F009FD10B12A
:104D10004FF0FF3053E70020FFF7D0FC10B14FF009
:104D2000FF304CE7002000F051FB10B14FF0FF3096
:104D300045E7002000F042FD002040E7EC000020A5
:104D4000556E737570706F7274656420736F6674DE
:104D5000776172652070726F647563742072657616
:104D60002025642E0A000000588C000848616C66FB
:104D70002073656E736974697669747920706172E5
:104D80007420666F756E642E0A0000002DE9F043F2
:104D900085B005460E4690469946294890F825006C
:104DA00020B14FF0FF3005B0BDE8F08316B94FF0E9
:104DB000FF30F8E7002423E0281B102801DD102035
:104DC00000E0281B87B232193946204600F05EFD0C
:104DD00010B14FF0FF30E6E701AA3946204600F057
:104DE00001F910B14FF0FF30DDE730193A4601A963
:104DF000FBF73AFB10B16FF00100D4E7E01984B281
:104E0000AC42D9DB4FEA28208DF8000008F0FF0003
:104E10008DF801000A4A1268917E094A526810789A
:104E20006B460222FCF737FE10B14FF0FF30BAE7B5
:104E30000121034880F82510A0F826900020B2E751
:104E4000EC00002038B50446282C02DD4FF0FF307E
:104E500038BDDCB9002000F0EBFB00208DF800002D
:104E600007208DF801002E4A1268917C2C4A526866
:104E700010786B460222FCF70EFE10B14FF0FF30A7
:104E8000E6E70021264801750020E1E7012000F057
:104E9000CFFB20208DF80000012C06D100208DF8DA
:104EA0000100052000F0FAFB17E0052C06DC0120CC
:104EB0008DF80100052000F0F1FB0EE0142C06DC5B
:104EC00002208DF801000A2000F0E8FB05E0032035
:104ED0008DF80100142000F0E1FB9DF8010007218E
:104EE00001EB8010C0B28DF801000D4A1268917C70
:104EF0000B4A526810786B460222FCF7CCFD10B1C9
:104F00004FF0FF30A4E708210548817200210173AA
:104F1000012101750020FFF7D1FB002098E7000078
:104F2000EC000020F8B504460F4616462C4890F8D1
:104F3000240010B94FF0FF30F8BD2948807A10B92D
:104F40004FF0FF30F8E7264A1268917A244A5268F7
:104F500010786B460222FCF7F8FC10B14FF0FF30DE
:104F6000EAE79DF801009DF8001040EA0125A542FE
:104F700003DA00203070401EDEE7194840684088A0
:104F8000B5EB600F17DD164A1268517C144A52685F
:104F900010786B460122FCF7D8FC10B14FF0FF30BF
:104FA000CAE79DF8000000F0100020B100F05AF8A8
:104FB0006FF00100C0E7E2B2094B1B68D97A084BD9
:104FC0005B6818783B46FCF7C0FC10B14FF0FF302F
:104FD000B2E795FBF4F0401E30700020ACE7000013
:104FE000EC000020F8B504460D46164616B94FF001
:104FF000FF30F8BD1A48807A10B94FF0FF30F8E75B
:1050000020128DF80000E0B28DF801009DF801003B
:105010002844134949684989884202DD4FF0FF302E
:10502000E7E70F4A1268117E0D4A526810786B4606
:105030000222FCF730FD10B14FF0FF30D9E7EAB2A1
:10504000074B1B68597D064B5B6818783346FCF7A5
:105050007CFC10B14FF0FF30CBE70020C9E7000027
:10506000EC00002008B57048807A10B94FF0FF308E
:1050700008BD002000906C4A1268D17B6A4A5268D1
:1050800010786B460122FCF706FD10B14FF0FF309F
:10509000EEE7654A12685179634A526810786B46A8
:1050A0000122FCF7F8FC10B14FF0FF30E0E75E4A58
:1050B000126811795C4A526810786B460122FCF73D
:1050C000EAFC10B14FF0FF30D2E7574890F82400C7
:1050D000002853D00C200090534A12681179524A8C
:1050E000526810786B460122FCF7D5FC10B14FF0E6
:1050F000FF30BDE73220FEF7E9F8C02000904A48B3
:10510000807A00F0010020B19DF8000040F02000FE
:105110000090454A12681179434A526810786B46EC
:105120000122FCF7B8FC10B14FF0FF30A0E73E4879
:10513000407C10B10220009001E0002000903A4A2B
:105140001268D17B384A526810786B460122FCF70E
:10515000A2FC10B14FF0FF308AE700200090324AE5
:1051600012685179304A526810786B460122FCF778
:1051700092FC002855D04FF0FF3079E704200090D2
:10518000294A12681179284A526810786B46012220
:10519000FCF781FC10B14FF0FF3069E72248807CBA
:1051A00020B92148807A00F0010010B94020009019
:1051B00001E0602000901C4A126811791A4A526876
:1051C00010786B460122FCF766FC10B14FF0FF30FF
:1051D0004EE73220FEF77AF81348407C10B10120E8
:1051E000009001E0002000900F4A1268D17B0E4A27
:1051F000526810786B460122FCF74DFC10B14FF05D
:10520000FF3035E7084A12685179074A526810782A
:10521000054B10330122FCF73EFC10B14FF0FF307C
:1052200026E7002024E70000EC0000202DE9F04FE5
:105230008DB083460F4602200C90424890F824001F
:1052400020B1002000F068F9012600E0002603A844
:10525000FFF722FC05A8FFF7C7FB01A8FFF766FCD4
:1052600002A8FFF78BFC374890F80AA004A8FFF7C4
:105270000BFC002407E0002239465846FEF7B4FE36
:1052800000B902E0641C022CF5DB00BF022C01D146
:10529000002528E0002407E0012206A909A8FEF75E
:1052A000A3FE00B902E0641C022CF5DB00BF022C57
:1052B00001D1002517E006A93846FDF757FC00F09C
:1052C000FF0809A95846FFF7C7F800F0FF090025B5
:1052D000B9F1000F01D145F00105B8F1000F01D17E
:1052E00045F0020500BFFF2016490872FF2115484E
:1052F0004172C1724FF6FF71C181FF218172017449
:1053000001210173BDF80C0000F04EF99DF8140066
:1053100000F01AF8BDF8040000F0C0F9BDF808006C
:1053200000F0FEF9504600F049FA9DF81000FFF732
:10533000C5F916B1012000F0EFF828460DB0BDE820
:10534000F08F0000EC00002038B504461E48807A3B
:1053500010B94FF0FF3038BD022C06D0042C07D016
:10536000082C08D0102C0CD108E0002000900BE095
:105370000820009008E01020009005E01820009020
:1053800002E04FF0FF30E6E700BF0F48407A9DF89B
:105390000010B0EBE10F01D10020DCE70A4A1268EF
:1053A000D179094A526810786B460122FCF773FBE9
:1053B00010B14FF0FF30CEE79DF80000C110024859
:1053C00041720020C7E70000EC00002038B5044619
:1053D0005048807CA04201D1002038BD002C46D02E
:1053E0004C4A126811794B4A526810786B46012278
:1053F000FCF7ABFA10B14FF0FF30EEE79DF800007C
:1054000020F020000090434A12681179414A526806
:1054100010786B460122FCF73EFB10B14FF0FF30D5
:10542000DBE70320FDF752FF02200090394890F897
:10543000220020B19DF8000040F080000090354827
:1054400090F8230020B19DF8000040F0300000905B
:10545000304A1268117D2F4A526810786B4601223B
:10546000FCF719FB002851D04FF0FF30B5E7294A6F
:1054700012681179274A526810786B460122FCF7AE
:1054800064FA10B14FF0FF30A7E72248807A00F0AD
:10549000010028B19DF8000040F02000009004E0D9
:1054A0009DF8000020F0200000901A4A126811793F
:1054B000184A526810786B460122FCF7ECFA10B1DA
:1054C0004FF0FF3089E70320FDF700FF114890F807
:1054D000220010B18020009001E0002000900D48D3
:1054E00090F8230020B19DF8000040F030000090BB
:1054F000084A1268117D074A526810786B460122EB
:10550000FCF7C9FA10B14FF0FF3066E70148847428
:10551000002062E7EC00002038B50446214890F8EE
:105520002400A04201D1002038BD24B31D4890F8CA
:10553000250010B94FF0FF30F6E7002000F03CFAEC
:105540000020FFF743FF1749C88C00F0E9F800205E
:1055500000901449496808786B4601222321FCF722
:105560009AFA01210F4880F82410012000F024FA53
:10557000FFF778FD13E0002000F01EFA0948007CD8
:1055800000900849496808786B4601222321FCF7FE
:1055900082FA0021034880F82410FFF763FD002001
:1055A000C2E70000EC00002038B504461F48807AAE
:1055B00010B94FF0FF3038BDFA2C09D0B4F5FA7F9E
:1055C00009D0B4F57A7F09D0B4F5FA6F0CD108E0B0
:1055D000002000900BE00820009008E010200090D0
:1055E00005E01820009002E04FF0FF30E3E700BF35
:1055F0000E48007A9DF80010B0EBE10F01D10020B9
:10560000D9E70A4A12689179084A526810786B46BD
:105610000122FCF740FA10B14FF0FF30CBE79DF8C4
:105620000000C010014908720020C4E7EC0000200F
:1056300038B50446184890F82300A04201D1002054
:1056400038BD14B13020009001E0002000901248D5
:10565000807C20B19DF8000040F0020000900E48D0
:1056600090F8220020B19DF8000040F080000090EA
:10567000094A1268117D084A526810786B46012267
:10568000FCF709FA10B14FF0FF30D9E7024880F873
:1056900023400020D4E70000EC00002038B5044689
:1056A0001E48807A10B94FF0FF3038BDBC2C02DBA9
:1056B0000120009015E0622C02DB0220009010E037
:1056C0002A2C02DB032000900BE0142C02DB0420C8
:1056D000009006E00A2C02DB0520009001E0062085
:1056E00000900E48C07A9DF80010884201D1002039
:1056F000DBE70A4A12689178084A526810786B46CC
:105700000122FCF7C8F910B14FF0FF30CDE79DF84A
:1057100000100248C1720020C7E70000EC00002022
:1057200038B504462448807A10B94FF0FF3038BDB0
:10573000214890F8240010B14FF0FF30F7E71E48E1
:10574000007D50B134B1282C04DCE0B2FFF77AFBC5
:105750000020ECE70020FFF775FB042C01DA04249D
:1057600004E0B4F57A7F01DD4FF47A744FF47A7077
:1057700090FBF4F0401EC0B200900F4A12685178BE
:105780000D4A526810786B460122FCF784F910B17B
:105790004FF0FF30CBE79DF80000401C4FF47A71CA
:1057A00091FBF0F081B20448C1810146C9894810DB
:1057B000FFF774FF0020BAE7EC00002038B504467C
:1057C00004F0700010B10120009005E014B1002039
:1057D000009001E0402000902B4A1268917C2A4AF8
:1057E000526810786B460122FCF755F920B1002170
:1057F00025488172481E38BD9DF8000020F0400108
:10580000214801730020009004F0400020B99DF869
:10581000000040F00400009004F0200020B99DF842
:10582000000040F00200009004F0100020B99DF844
:10583000000040F00100009004F0080020B99DF83D
:10584000000040F0380000900F4A1268D17C0E4AE8
:10585000526810786B460122FCF71DF920B1002137
:1058600009488172481EC6E724B1082C02D00020E6
:10587000FFF7DEFE04488472002101753220FDF737
:1058800025FD0020B7E70000EC000020F8B5044635
:105890000D46164616B94FF0FF30F8BD1A48807A0B
:1058A00010B94FF0FF30F8E720128DF80000E0B299
:1058B0008DF801009DF80100284413494968498981
:1058C000884202DD4FF0FF30E7E70F4A1268117E91
:1058D0000D4A526810786B460222FCF7DCF810B1D2
:1058E0004FF0FF30D9E7EAB2074B1B68597D064BF2
:1058F0005B6818783346FCF7CEF810B14FF0FF30F4
:10590000CBE70020C9E70000EC00002010B50246FC
:10591000012000E050430B1EA1F10104E1B2F9D1D6
:1059200010BD70B588B002A905A8FFF77FFC04463A
:10593000072C3ED101A8FFF7D1F8059800F0D0FF61
:105940000646019901F02CF8054600F08DFF059000
:10595000069800F0C5FF0646019901F021F80546BA
:1059600000F082FF0690079800F0BAFF0646019902
:1059700001F016F8054600F077FF079005A8FEF73E
:1059800029F86846FFF756F8BDF80010029848431A
:105990000290BDF80010039848430390BDF8001032
:1059A00004984843049002A8FDF744FF002008B083
:1059B00070BD0120FBE7000038B50446214890F88F
:1059C0002400C0B114B10220009001E0002000903A
:1059D0001C4A1268D17B1B4A526810786B46012220
:1059E000FCF759F810B14FF0FF3038BD9DF80010AA
:1059F0001448417423E01348807A10B94FF0FF3007
:105A0000F3E724B10F48407C08B10020EDE714B162
:105A10000120009001E0002000900A4A1268D17B2A
:105A2000084A526810786B460122FCF734F810B12E
:105A30004FF0FF30D9E79DF8001002484174002074
:105A4000D3E70000EC0000202DE9F04106460F46A8
:105A500000F0AAFB041E0D4618BF0120284320F0C9
:105A60000040C0F17F6000F1E040C00F0ED0301C5C
:105A700018BF0120384320F00040C0F17F6000F1E2
:105A8000E040C00F04BF0120FAF7A2FD20462946DE
:105A9000BDE8F08121F00042A2F16052B2F5801F12
:105AA00001F0004328BFD2F17F6C0BD95FEA001CE4
:105AB00043EAC20242EB507018BF704728BF20F083
:105AC00001007047B2F5801FBCBF184670474FEA0F
:105AD000410C1CF5001F02D2084601F028B870B531
